:100000000C94CF000C94F7000C94F7000C94F700BC
:100010000C94F7000C94F7000C94F7000C94F70084
:100020000C94F7000C94F7000C94F7000C94F70074
:100030000C94F7000C94F7000C94F7000C94F70064
:100040000C94D5040C94F7000C94D4030C94AE03D8
:100050000C94F7000C94F7000C94F7000C94F70044
:100060000C941F050C94F70007634236B79BD8A782
:100070001A39685618AEBAAB558C1D3CB7CC5763CD
:10008000BD6DEDFD753EF6177231BF000000803F7B
:1000900008000000BE922449123EABAAAA2ABECD97
:1000A000CCCC4C3E00000080BEABAAAAAA3E000009
:1000B0000000BF000000803F000000000008417801
:1000C000D3BB4387D1133D190E3CC3BD4282AD2B38
:1000D0003E68EC8276BED98FE1A93E4C80EFFFBE30
:1000E00001C4FF7F3F000000000000000000250069
:1000F00028002B000000000023002600290000003B
:1001000000080002010000030407000000000000D6
:10011000000000000000240027002A00010204085B
:100120001020408001020408102001020408102061
:10013000040404040404040402020202020203038D
:100140000303030369662076616C7565206973207B
:100150006F7574206F66203130302D323030207250
:10016000616E67652C20636865636B2068617264EB
:10017000776172650043616C6962726174696F6E68
:1001800020417665726167652073617665642069D8
:100190006E20656570726F6D203A2000C70C1124C7
:1001A0001FBECFEFD8E0DEBFCDBF22E0AAE6B1E0B0
:1001B00001C01D92A13BB207E1F711E0A0E0B1E060
:1001C000E8E1F7E202C005900D92AA36B107D9F72F
:1001D00010E0CFECD0E004C02197FE010E946C112A
:1001E000CE3CD107C9F70E94A5070C948A130C9442
:1001F00000000895CF92DF92EF92FF920F931F932A
:10020000CF93DF936C017A018B01C0E0D0E0CE1573
:10021000DF0589F0D8016D918D01D601ED91FC913A
:100220000190F081E02DC6010995892B11F47E0122
:1002300002C02196ECCFC701DF91CF911F910F91A2
:10024000FF90EF90DF90CF900895FC01538D448D87
:10025000252F30E0842F90E0821B930B541710F071
:10026000CF96089501970895FC01918D828D98177E
:1002700061F0828DDF01A80FB11D5D968C91928D8A
:100280009F5F9F73928F90E008958FEF9FEF089587
:10029000FC01918D828D981731F0828DE80FF11D50
:1002A000858D90E008958FEF9FEF0895FC01918D6B
:1002B000228D892F90E0805C9F4F821B91098F7364
:1002C0009927089584E092E00E94560121E0892B4D
:1002D00009F420E0822F0895FC01848DDF01A80F2E
:1002E000B11DA35ABF4F2C91848D90E001968F735E
:1002F0009927848FA689B7892C93A089B1898C917D
:1003000080648C93938D848D981306C00288F38942
:10031000E02D80818F7D80830895EF92FF920F936F
:100320001F93CF93DF93EC0181E0888F9B8D8C8DA1
:10033000981305C0E889F989808185FD24C0F62ECF
:100340000B8D10E00F5F1F4F0F731127E02E8C8D68
:10035000E8120CC00FB607FCFACFE889F989808152
:1003600085FFF5CFCE010E946C01F1CF8B8DFE0190
:10037000E80FF11DE35AFF4FF0820B8FEA89FB89EA
:100380008081806207C0EE89FF896083E889F989EE
:1003900080818064808381E090E0DF91CF911F9124
:1003A0000F91FF90EF900895CF93DF93EC01888D2C
:1003B0008823C9F0EA89FB89808185FD05C0A88969
:1003C000B9898C9186FD0FC00FB607FCF5CF8081EF
:1003D00085FFF2CFA889B9898C9185FFEDCFCE0139
:1003E0000E946C01E7CFDF91CF91089580E090E00B
:1003F000892B29F00E94620181110C94000008955C
:10040000833081F028F4813099F08230A1F0089592
:100410008730A9F08830B9F08430D1F48091800021
:100420008F7D03C0809180008F7780938000089536
:1004300084B58F7702C084B58F7D84BD0895809187
:10044000B0008F7703C08091B0008F7D8093B000A3
:1004500008953FB7F8948091DA019091DB01A09163
:10046000DC01B091DD0126B5A89B05C02F3F19F036
:100470000196A11DB11D3FBFBA2FA92F982F882724
:10048000820F911DA11DB11DBC01CD0142E0660F7F
:10049000771F881F991F4A95D1F7089585ED80939E
:1004A000BC008091BC0084FDFCCF1092B301089584
:1004B00040918D01262F30E0240F311D213231056E
:1004C000DCF42091B3012430C9F4FC0180E090E019
:1004D000861758F430918D012191DC01A559BE4F4A
:1004E000A30FB11D2C930196F3CF80918D01680F5E
:1004F00060938D0180E0089581E0089582E0089581
:1005000008958FEF9FEF08958FEF9FEF08958091EB
:100510006A0190E09195819591090895CF93DF93B9
:1005200000D0CDB7DEB7CB01642F49835A830E9438
:1005300058024981842F5A81952F0F900F90DF9197
:10054000CF910895CF93DF931F92CDB7DEB7698324
:1005500061E0CE0101960E94580281E090E00F9088
:10056000DF91CF910895089580E090E008958EBDC9
:1005700000000DB407FEFDCF8EB50895FC01248167
:100580003581232B31F421E061157105A1F0FB01C8
:1005900008C0FC01808191816115710531F421E071
:1005A000FC018081882339F005C00E947A1321E084
:1005B000892B09F020E0822F08950F931F93CF938A
:1005C000DF93EC0188819981009729F02A813B8192
:1005D0002617370788F48B016F5F7F4F0E949F12A9
:1005E000009761F0998388831B830A832C813D8166
:1005F000232B11F4FC01108281E001C080E0DF9127
:10060000CF911F910F910895EF92FF920F931F9337
:10061000CF93DF93EC017B018A01BA010E94DD02D6
:100620002881398181110DC02115310519F0C901C9
:100630000E940712198218821D821C821B821A8254
:1006400006C01D830C83B701C9010E948313CE012C
:10065000DF91CF911F910F91FF90EF900895FC01D2
:10066000808191810C940712FC0111821082138207
:100670001282158214826115710551F0FB010190FF
:100680000020E9F73197AF01461B570B0C94040388
:100690000895BF92CF92DF92EF92FF920F931F9334
:1006A000CF93DF937C016B01EA01890124173507A1
:1006B00020F48D2FE901042F182F6EE471E0C7019B
:1006C0000E943403D60114968D919C911597C817FA
:1006D000D907C8F58017910708F48C01D601ED9170
:1006E000FC911197E00FF11FB08010824D915C9149
:1006F000BA016C0F7D1F6115710561F0FB0101905E
:100700000020E9F73197AF01461B570BC7010E9444
:10071000040313C0F70180819181009711F00E94BA
:100720000712D70111961C921E9215961C921E92CA
:10073000149713961C921E921297D601ED91FC917C
:10074000E00FF11FB082C701DF91CF911F910F9190
:10075000FF90EF90DF90CF90BF9008951F920F927F
:100760000FB60F9211242F933F934F935F936F9384
:100770007F938F939F93AF93BF93EF93FF9384E007
:1007800092E00E946C01FF91EF91BF91AF919F9118
:100790008F917F916F915F914F913F912F910F902A
:1007A0000FBE0F901F9018951F920F920FB60F92C9
:1007B00011242F938F939F93EF93FF93E091140253
:1007C000F09115028081E0911A02F0911B0282FDE6
:1007D00012C0908180911D028F5F8F7320911E0245
:1007E000821751F0E0911D02F0E0EC5FFD4F958F14
:1007F00080931D0201C08081FF91EF919F918F91A5
:100800002F910F900FBE0F901F901895CF93DF93ED
:10081000282F30E0F901E250FF4F8491F901E45EA6
:10082000FE4FD491F901E05DFE4FC491CC2391F0CD
:1008300081110E940002EC2FF0E0EE0FFF1FEC5040
:10084000FF4FA591B491EC91ED2381E090E021F46C
:1008500080E002C080E090E0DF91CF9108951F9387
:10086000CF93DF93282F30E0F901E250FF4F8491BE
:10087000F901E45EFE4FD491F901E05DFE4FC491B1
:10088000CC23C9F0162F81110E940002EC2FF0E05A
:10089000EE0FFF1FE651FF4FA591B4918FB7F8946B
:1008A000111105C09C91ED2FE095E92302C0EC9158
:1008B000ED2BEC938FBFDF91CF911F910895CF93D4
:1008C000DF9390E0FC01E45EFE4F2491FC01E05DCB
:1008D000FE4F8491882361F190E0880F991FFC01FD
:1008E000EE5EFE4FC591D491FC01E651FF4FA591FC
:1008F000B491611109C09FB7F89488812095822333
:100900008883EC912E230BC0623061F49FB7F8947A
:100910003881822F809583238883EC912E2B2C9312
:100920009FBF06C08FB7F894E8812E2B28838FBF16
:10093000DF91CF9108958F929F92AF92BF92CF9205
:10094000DF92EF92FF926B017C010E9429024B0122
:100950005C01C114D104E104F104F1F00E94290208
:10096000DC01CB0188199909AA09BB09883E93408B
:10097000A105B10570F321E0C21AD108E108F10820
:1009800088EE880E83E0981EA11CB11CC114D1040E
:10099000E104F10419F7DDCFFF90EF90DF90CF90E5
:1009A000BF90AF909F908F9008951F920F920FB6B7
:1009B0000F9211242F933F938F939F93AF93BF93E5
:1009C0008091000290910102A0910202B091030275
:1009D0003091D90123E0230F2D3720F40196A11D7A
:1009E000B11D05C026E8230F0296A11DB11D20935D
:1009F000D9018093000290930102A0930202B09368
:100A000003028091DA019091DB01A091DC01B091A9
:100A1000DD010196A11DB11D8093DA019093DB01E8
:100A2000A093DC01B093DD01BF91AF919F918F91B5
:100A30003F912F910F900FBE0F901F9018951F920E
:100A40000F920FB60F9211242F933F934F935F9302
:100A50006F937F938F939F93AF93BF93EF93FF9386
:100A60008091B900887F803609F49CC068F588328F
:100A700009F45BC090F4803109F454C038F4882341
:100A800009F4F6C0883009F44DC0F6C0883109F485
:100A90004CC0803209F45DC0EFC0803409F468C0F6
:100AA00048F4803309F455C0883309F0E5C08093D9
:100AB000B201D8C0803509F44FC0883509F45DC053
:100AC000883409F0D9C0D6C0883909F4C7C0A8F461
:100AD000883709F467C038F4883609F463C0803772
:100AE00009F460C0C9C0883809F4B8C0803909F475
:100AF0005FC0803809F0C0C05BC0803B09F486C08D
:100B000038F4803A09F466C0883A09F47FC0B4C06A
:100B1000803C09F4A7C0883C09F4A4C0883B09F4D0
:100B20008AC0AAC08091D80110C09091D70180914D
:100B3000D601981770F5E091D70181E08E0F809370
:100B4000D701F0E0EA54FE4F80818093BB0085EC32
:100B500086C08093B2018EC0E091D70181E08E0FF4
:100B60008093D7018091BB00F0E0EA54FE4F808370
:100B70009091D7018091D6016EC0E091D70181E0BC
:100B80008E0F8093D7018091BB00F0E0EA54FE4FB6
:100B900080838091B50181116DC081E08093B401A3
:100BA00084EA61C083E08093B3011092B101CFCF9A
:100BB0008091B101803208F051C0E091B10181E033
:100BC0008E0F8093B1018091BB00F0E0EF56FE4F95
:100BD0008083BDCF85EC8093BC001092B3018091DF
:100BE000B101803230F4E091B101F0E0EF56FE4FF8
:100BF00010826091B10170E0E0918F01F09190015D
:100C000081E991E009951092B10136C084E08093AA
:100C1000B30110928E0110928D01E0918B01F09141
:100C20008C01099580918D01811105C081E080932F
:100C30008D0110926B01E0918E0181E08E0F809307
:100C40008E01F0E0E559FE4F80818093BB009091CA
:100C50008E0180918D01981708F479CF85E88093F3
:100C6000BC000AC085EC8093BC001092B30104C0A4
:100C70001092B2010E944E02FF91EF91BF91AF918D
:100C80009F918F917F916F915F914F913F912F91A4
:100C90000F900FBE0F901F901895CF93C82F61E053
:100CA0000E942F0460E08C2FCF910C942F04CF92E0
:100CB000DF92EF92FF920F931F93CF93DF938A01FE
:100CC00020E030E040E85FE40115110579F40E946E
:100CD000A20D28E23BE64EEE5CE40E941A0F0E9451
:100CE0008C0F6B017C01C4E0D0E007C00E94A20D14
:100CF00020E539EA4BE25DE4F0CF8C2D0E94B7028B
:100D0000CD2CDE2CEF2CFF242197B9F7012B11F409
:100D100080E001C081E00E94B70288E090E0DF91AE
:100D2000CF911F910F91FF90EF90DF90CF900C9497
:100D30004D06CF92DF92EF92FF920F931F93CF93C6
:100D4000DF9304E110E0C12CD12C760180910001E9
:100D500020E4829FC001112480937C0080917A005E
:100D6000806480937A0080917A0086FDFCCFC091E8
:100D70007800D091790061E070E080E090E00E941E
:100D80009B048C2F90E09D2BC80ED91EE11CF11CFA
:100D900001501109D9F6C701B60124E130E040E065
:100DA00050E00E944A11C901DF91CF911F910F912C
:100DB000FF90EF90DF90CF900895009769F0FC01CD
:100DC00001900020E9F73197AF01481B590BBC0196
:100DD00084E092E00C94FA0080E090E00895CF93D4
:100DE000DF930E94DD06EC018CE491E00E94DD06B9
:100DF0008C0F9D1FDF91CF9108950F931F93CF9379
:100E0000DF938C01C0E0D0E0F801EC0FFD1F64918E
:100E1000662371F0E0910402F09105020190F081E7
:100E2000E02D84E092E00995892B11F02196ECCF1A
:100E3000CE01DF91CF911F910F9108958F929F92D4
:100E4000AF92BF920F931F93CF93DF93CDB7DEB7CF
:100E5000A1970FB6F894DEBF0FBECDBF19A24230E6
:100E600008F44AE08E010F5D1F4F842E912CA12CB7
:100E7000B12CA50194010E944A11E62FB901CA01C3
:100E800001501109EA3014F4E05D01C0E95CD801B9
:100E9000EC93232B242B252B61F7C8010E94DD0640
:100EA000A1960FB6F894DEBF0FBECDBFDF91CF91F4
:100EB0001F910F91BF90AF909F908F9008952FB783
:100EC000F8948091000290910102A0910202B091E9
:100ED00003022FBF80930C0290930D02A0930E0289
:100EE000B0930F02E0910402F09105020284F385B1
:100EF000E02D84E092E0099597FF26C02FB7F89483
:100F00008091000290910102A0910202B09103022F
:100F10002FBF40910C0250910D0260910E02709112
:100F20000F02841B950BA60BB70B40910802509142
:100F3000090260910A0270910B0284179507A607B7
:100F4000B70780F28FEF9FEF0895CF93DF93CDB770
:100F5000DEB767970FB6F894DEBF0FBECDBF7894AB
:100F600084B5826084BD84B5816084BD85B58260AE
:100F700085BD85B5816085BD80916E00816080935F
:100F80006E001092810080918100826080938100C8
:100F900080918100816080938100809180008160D8
:100FA000809380008091B10084608093B100809133
:100FB000B00081608093B00080917A00846080935B
:100FC0007A0080917A00826080937A0080917A0022
:100FD000816080937A0080917A00806880937A00A3
:100FE0001092C100E0911402F091150282E080831A
:100FF000E0911002F09111021082E0911202F09142
:10100000130283E3808310921C02E0911802F09196
:10101000190286E08083E0911602F0911702808128
:1010200080618083E0911602F091170280818860D0
:101030008083E0911602F09117028081806880839E
:10104000E0911602F091170280818F7D80838EE4FB
:1010500091E00E94EF0661E084E00E945F0462E09C
:1010600087E00E945F0460E084E00E942F041092F9
:10107000000187E00E9406048170992721E0822701
:101080009093FE018093FD011FB7F8948091DE01DB
:10109000811127C0EAE3F1E08491E6E2F1E0949166
:1010A000E82FF0E0EE0FFF1FEE5EFE4FA591B4912A
:1010B000EC91E92321F461E08AE00E942F0461E0D1
:1010C0008AE00E945F048CB580618CBD8CB5806421
:1010D0008CBD61E08DE00E945F0461E08BE00E94C6
:1010E0005F048091DE018F5F8093DE011FBF61E0AE
:1010F0008DE00E945F0461E088E00E945F0461E08F
:1011000089E00E945F048CB580628CBD8CB5837FC2
:101110008CBD89E090E00E944D068DE090E00E9439
:101120004D0688E090E00E944D066AE070E080E0A5
:1011300090E00E949B040091FD011091FE01A80126
:1011400060E070E0CB010E945706A80160E070E00B
:10115000CB010E9457062AE9222E23E0322E6EE4AC
:1011600071E0CE0107960E9434038091FF01811146
:101170002CC26EE471E0CE0101960E9434030E94FD
:101180005F0797FD1EC08D309105D9F08D871E86B3
:101190000D811E810F5F1F4FB801CE0101960E9485
:1011A000DD02882361F329813A818D819E81BE0110
:1011B000635F7F4F820F931F0E9483131E830D83F3
:1011C000DECF8F8198850097A9F069817A816115BA
:1011D000710571F049855A852D813E81421753076B
:1011E00038F00E9483138D819E819C878B8712C06B
:1011F0000E94071289819A8198878F838B819C81B5
:101200009A8789878D819E819C878B871A82198214
:101210001C821B821E821D82CE0101960E942F031A
:101220000F8118850115110531F48B859C85892B5B
:1012300009F4A6C30DC0F80180818823B1F3082EFC
:10124000000C990B0E946913D8018D938D01F3CF87
:1012500025E030E042E050E0BE01695F7F4FCE0103
:1012600001960E9449036BE271E0CE0101960E9453
:10127000BE02182FCE0101960E942F03113021F4D7
:101280008FE291E00E94EF0623E030E040E050E082
:10129000BE01695F7F4FCE0101960E9449036EE354
:1012A00071E0CE0101960E94BE02182FCE01019678
:1012B0000E942F03113069F44091FD015091FE010D
:1012C00060E070E0CB010E94570682E491E00E944A
:1012D000EF0622E030E040E050E0BE01695F7F4F62
:1012E000CE0101960E94490365E471E0CE010196AA
:1012F0000E94BE02182FCE0101960E942F031130CA
:10130000B1F40091FD011091FE01A80160E876E9B9
:1013100088E19BE40E945706A80160E876E988E12D
:101320009BE40E94570682E491E00E94EF0623E0CE
:1013300030E040E050E0BE01695F7F4FCE01019692
:101340000E94490368E471E0CE0101960E94BE024A
:10135000182FCE0101960E942F03113009F081C091
:10136000812C912C540190E4C92E92E4D92E9FE057
:10137000E92EF12C0091FD011091FE01C701B6018B
:101380000E94410DA8010E94570661E070E080E0D4
:1013900090E00E949B040E9499069101281B390B42
:1013A000820E931EA11CB11C30E4C30E32E4D31E86
:1013B0003FE0E31EF11C40ECC41645E0D40649EDC5
:1013C000E40641E0F406B1F6C501B4012EE130E0D7
:1013D00040E050E00E944A11122F032FF42E85E7BF
:1013E00091E05F8B0E94FD064AE0612F702F8F2DE8
:1013F0005F89952F0E941E078CE491E00E94DD0614
:1014000084E491E00E94FD068CE491E00E94DD06F8
:10141000812F902F9A83898382E090E00E94600E52
:10142000181729F0612F82E090E00E94680E6A810F
:1014300083E090E06F8B0E94600E6F89681721F047
:1014400083E090E00E94680E4091FD015091FE0102
:1014500060E070E0CB010E94570682E491E00E94B8
:10146000EF0622E030E040E050E0BE01695F7F4FD0
:10147000CE0101960E9449036FE471E0CE0101960E
:101480000E94BE02182FCE0101960E942F03113038
:1014900029F52B853C8542E050E0BE01695F7F4F16
:1014A000CE0101960E94490389819A81009719F023
:1014B0000E94000D03C060E070E0CB016093F90171
:1014C0007093FA018093FB019093FC01CE01019689
:1014D0000E942F0382E491E00E94EF0622E030E0B8
:1014E00040E050E0BE01695F7F4FCE0101960E944F
:1014F000490362E571E0CE0101960E94BE02182FF9
:10150000CE0101960E942F03113029F52B853C85D1
:1015100042E050E0BE01695F7F4FCE0101960E941C
:10152000490389819A81009719F00E94000D03C038
:1015300060E070E0CB016093F5017093F601809359
:10154000F7019093F801CE0101960E942F0382E4E7
:1015500091E00E94EF0623E030E040E050E0BE0161
:10156000695F7F4FCE0101960E94490365E571E0F6
:10157000CE0101960E94BE02182FCE0101960E9454
:101580002F03113009F0FCC12B853C8543E050E06E
:10159000BE01695F7F4FCE0101960E944903898198
:1015A0009A81009719F00E94000D03C060E070E07E
:1015B000CB017093F4016093F301CE0101960E9478
:1015C0002F0351E05093FF01DBC18090F501909013
:1015D000F601A090F701B090F801E090F301F090CF
:1015E000F40197010F2C000C440B550BC501B401FD
:1015F0000E944A112B8B3C8B4D8B5E8BB694A7942B
:10160000979487948091F9019091FA01A091FB0140
:10161000B091FC012C013D01481859086A087B086B
:1016200082E090E00E94600E898383E090E00E9457
:10163000600E8A838FEFE81AF80AF092F401E092C4
:10164000F30100E010E08091F3019091F40108179C
:1016500019070CF08FC1C301B2010E94410D6093C4
:10166000DF017093E0018093E1019093E2014091EA
:10167000FD015091FE010E94570661E070E080E09C
:1016800090E00E949B040E94990669817A81860FEE
:10169000971FBC0180E090E00E94410D20E030E007
:1016A00048EC52E40E94A20D20E030E040E85AE30A
:1016B0000E94A20D20E030E044EB52E40E94AD0E07
:1016C0006093E3017093E4018093E5019093E60158
:1016D00020E030E040EA51EC0E941A0F9B01AC017F
:1016E00060E070E080E291E40E94C00F6B017C0139
:1016F0006093E7017093E8018093E9019093EA0118
:101700009B01AC0160E070E080E89FE30E94AD0EB9
:101710004B015C0120E030E040E85FE3C701B60127
:101720000E94AE0EA50194010E941A0F9B01AC010C
:101730005F772F87388B498B5A8B2093EB0130933F
:10174000EC014093ED015093EE01A7019601C70112
:10175000B6010E94A20D9B01AC0160E070E080E840
:101760009FE30E94AD0E6B017C01A5019401C501B0
:10177000B4010E94A20D9B01AC01C701B6010E94F9
:101780001A0F9F7720E030E048E452E40E94A20D57
:101790006093EF017093F0018093F1019093F20157
:1017A00020E030E040E251E46F85788989899A89A8
:1017B0000E94BB0F181664F480E090E0A0E2B1E450
:1017C0008093EB019093EC01A093ED01B093EE01B7
:1017D0004AE0C301B2010E941E0789E591E00E9420
:1017E000DD06C090EF01D090F001E090F101F090A3
:1017F000F201A7019601C701B6010E9410108823CB
:1018000019F08BE591E027C046015701E894B7F83D
:101810002FEF3FEF4FE75FE7C501B4010E941010C3
:1018200081110DC02FEF3FEF4FE75FE7C501B40116
:101830000E943C0D18161CF48FE591E00CC02FEFB0
:101840003FEF4FE75FE4C701B6010E94BB0F1816D8
:101850002CF483E691E00E94DD0675C02FEF3FEF88
:101860004FE75FECC701B6010E943C0D87FDF1CF49
:1018700020E030E0A901C701B6010E943C0D87FFBE
:101880000FC0E0910402F09105020190F081E02D7B
:101890006DE284E092E00995F7FAF094F7F8F0949D
:1018A0002AE037ED43EA5BE3C701B6010E94AE0EC2
:1018B0004B015C010E948C0F6B017C010E94410D69
:1018C0009B01AC01C501B4010E94AD0E4B015C014E
:1018D0004AE0C701B6010E941E07E0910402F091A0
:1018E00005020190F081E02D6EE284E092E009951E
:1018F00020E030E040E251E4C501B4010E94A20DB5
:101900006B017C010E948C0F4B01A12CB12C4AE091
:10191000C501B4010E941E07C501B4010E94410D1A
:101920009B01AC01C701B6010E94AD0E20E030E082
:1019300040E251E40E94A20D0E948C0F80E090E0F2
:101940004AE00E941E0787E691E00E94EF0684E0CD
:101950000E94060461E0682784E00E942F048B89BE
:101960009C89AD89BE89480E591E6A1E7B1E0F5F79
:101970001F4F69CE82E491E00E94EF061092FF01B2
:10198000CE0107960E942F030E94F601E8CBE4E007
:10199000F2E01382128288EE93E0A0E0B0E084834C
:1019A0009583A683B7832BE031E03183208325EC38
:1019B00030E03587248724EC30E03787268720EC19
:1019C00030E0318B208B21EC30E0338B228B22EC0A
:1019D00030E0358B248B26EC30E0378B268B118E54
:1019E000128E138E148EE1EAF2E013821282848347
:1019F0009583A683B7838DE191E0918380830895D9
:101A00001F93FC0199278827BC01E894119110329B
:101A1000E9F3193010F01E30C8F31B3251F01D32BB
:101A200049F4689406C00E94270D610F711D811D45
:101A3000911D119110531A30B0F33EF4909580959A
:101A4000709561957F4F8F4F9F4F1F910895592F2C
:101A5000482F372F262F660F771F881F991F660F75
:101A6000771F881F991F620F731F841F951F660FB2
:101A7000771F881F991F08950E947E0D08F481E04A
:101A80000895E89409C097FB3EF490958095709571
:101A900061957F4F8F4F9F4F9923A9F0F92F96E9BA
:101AA000BB279395F695879577956795B795F1112F
:101AB000F8CFFAF4BB0F11F460FF1BC06F5F7F4FCC
:101AC0008F4F9F4F16C0882311F096E911C07723DE
:101AD00021F09EE8872F762F05C0662371F096E8E7
:101AE000862F70E060E02AF09A95660F771F881FB6
:101AF000DAF7880F9695879597F90895990F00085A
:101B0000550FAA0BE0E8FEEF16161706E807F907CF
:101B1000C0F012161306E407F50798F0621B730B6A
:101B2000840B950B39F40A2661F0232B242B252BEB
:101B300021F408950A2609F4A140A6958FEF811D8E
:101B4000811D08950E94B50D0C94260E0E94180E5A
:101B500038F00E941F0E20F0952311F00C940F0E08
:101B60000C94150E11240C945A0E0E94370E70F32B
:101B7000959FC1F3950F50E0551F629FF001729F32
:101B8000BB27F00DB11D639FAA27F00DB11DAA1F41
:101B9000649F6627B00DA11D661F829F2227B00D8E
:101BA000A11D621F739FB00DA11D621F839FA00D19
:101BB000611D221F749F3327A00D611D231F849F69
:101BC000600D211D822F762F6A2F11249F575040C0
:101BD0009AF0F1F088234AF0EE0FFF1FBB1F661F3B
:101BE000771F881F91505040A9F79E3F510580F004
:101BF0000C940F0E0C945A0E5F3FE4F3983ED4F30E
:101C0000869577956795B795F795E7959F5FC1F7A7
:101C1000FE2B880F911D9695879597F9089597F952
:101C20009F6780E870E060E008959FEF80EC089582
:101C300000240A94161617061806090608950024AB
:101C40000A9412161306140605060895092E039425
:101C5000000C11F4882352F0BB0F40F4BF2B11F499
:101C600060FF04C06F5F7F4F8F4F9F4F089557FDF8
:101C70009058440F551F59F05F3F71F04795880FFA
:101C800097FB991F61F09F3F79F087950895121691
:101C900013061406551FF2CF4695F1DF08C016163D
:101CA00017061806991FF1CF8695710561050894EE
:101CB0000895E894BB2766277727CB0197F9089505
:101CC000F999FECF92BD81BDF89A992780B5089504
:101CD000262FF999FECF1FBA92BD81BD20BD0FB648
:101CE000F894FA9AF99A0FBE019608952F923F92AE
:101CF0004F925F926F927F928F929F92AF92BF921C
:101D0000CF92DF92EF92FF920F931F93CF93DF93C7
:101D1000CDB7DEB7CA1BDB0B0FB6F894DEBF0FBE24
:101D2000CDBF09942A88398848885F846E847D8471
:101D30008C849B84AA84B984C884DF80EE80FD8073
:101D40000C811B81AA81B981CE0FD11D0FB6F894E9
:101D5000DEBF0FBECDBFED0108955058BB27AA27A7
:101D60000E94C50E0C94260E0E94180E38F00E9498
:101D70001F0E20F039F49F3F19F426F40C94150E31
:101D80000EF4E095E7FB0C940F0EE92F0E94370E3E
:101D900058F3BA17620773078407950720F079F4A0
:101DA000A6F50C94590E0EF4E0950B2EBA2FA02D2B
:101DB0000B01B90190010C01CA01A0011124FF27F8
:101DC000591B99F0593F50F4503E68F11A16F040F3
:101DD000A22F232F342F4427585FF3CF46953795F2
:101DE0002795A795F0405395C9F77EF41F16BA0BB7
:101DF000620B730B840BBAF09150A1F0FF0FBB1F65
:101E0000661F771F881FC2F70EC0BA0F621F731FAD
:101E1000841F48F4879577956795B795F7959E3F0A
:101E200008F0B0CF9395880F08F09927EE0F97959B
:101E3000879508950E942E0F0C94260E0E941F0E67
:101E400058F00E94180E40F029F45F3F29F00C94DE
:101E50000F0E51110C945A0E0C94150E0E94370E51
:101E600068F39923B1F3552391F3951B550BBB27C9
:101E7000AA2762177307840738F09F5F5F4F220F0E
:101E8000331F441FAA1FA9F335D00E2E3AF0E0E805
:101E900032D091505040E695001CCAF72BD0FE2F4F
:101EA00029D0660F771F881FBB1F261737074807E3
:101EB000AB07B0E809F0BB0B802DBF01FF2793589B
:101EC0005F4F3AF09E3F510578F00C940F0E0C9442
:101ED0005A0E5F3FE4F3983ED4F386957795679565
:101EE000B795F7959F5FC9F7880F911D96958795D0
:101EF00097F90895E1E0660F771F881FBB1F6217EF
:101F000073078407BA0720F0621B730B840BBA0BAC
:101F1000EE1F88F7E09508950E943F0E88F09F57C6
:101F200098F0B92F9927B751B0F0E1F0660F771FFD
:101F3000881F991F1AF0BA95C9F714C0B13091F0F3
:101F40000E94590EB1E008950C94590E672F782F16
:101F50008827B85F39F0B93FCCF3869577956795B8
:101F6000B395D9F73EF490958095709561957F4F24
:101F70008F4F9F4F08950E947E0D08F48FEF0895B4
:101F8000FA01EE0FFF1F309621053105A1F1611511
:101F9000710561F48038BFE39B0749F1689490387C
:101FA000810561F08038BFEF9B0741F099234AF526
:101FB000FF3FE1053105210519F1E8940894E79503
:101FC000D901AA2329F4AB2FBE2FF85FD0F310C09C
:101FD000FF5F70F4A695E0F7F73950F019F0FF3A7B
:101FE00038F49F779F930DD00F9007FC9058089579
:101FF00046F00C94150E60E070E080E89FE30895D1
:102000004FE79F775F934F933F932F930E94C010AA
:102010002F913F914F915F910E94A20D0C941D1042
:102020000E947E0D880B990B089529F416F00C94EC
:102030000F0E0C94590E0C94150E0E943F0EA8F32F
:102040009638A0F707F80F92E8942BE33AEA48EBAA
:102050005FE70E94B80D0F920F920F924DB75EB7D7
:102060000F920E940811E8E6F0E00E944F104F9195
:102070005F91EF91FF91E595EE1FFF1F49F0FE572D
:10208000E0684427EE0F441FFA95E1F74195550BA0
:102090000E9482100F9007FE0C9476100895DF9333
:1020A000CF931F930F93FF92EF92DF927B018C01EE
:1020B000689406C0DA2EEF010E94B50DFE01E89487
:1020C000A5912591359145915591A6F3EF010E9477
:1020D000C50EFE019701A801DA9469F7DF90EF9031
:1020E000FF900F911F91CF91DF9108959B01AC015B
:1020F00060E070E080E89FE30C941A0F0C940F0EE0
:102100000C943C110E943F0ED8F39923C9F3940F0D
:10211000511DA3F39150504094F059F0882332F0B0
:10212000660F771F881F91505040C1F79E3F5105A1
:102130002CF7880F911D9695879597F908955F3F25
:10214000ACF0983E9CF0BB27869577956795B79540
:1021500008F4B1609395C1F7BB0F58F711F460FF15
:10216000E8CF6F5F7F4F8F4F9F4FE3CF0C945A0E96
:1021700016F00C943C110C94150E68940C940F0EF0
:102180000E943F0EA8F39923C1F3AEF3DF93CF93E0
:102190001F930F93FF92C92FDD2788232AF02197E1
:1021A000660F771F881FDAF720E030E040E85FEB2A
:1021B0009FE3883920F0803E38F021968F770E9487
:1021C000AE0EE0E9F0E004C00E94AE0EEDEBF0E0F0
:1021D0000E944F108B01BE01EC01FB2E6F5771095D
:1021E0007595771F880B990B0E94430D28E132E704
:1021F00041E35FE30E94B50DAF2D9801AE01FF9062
:102200000F911F91CF91DF910E94C50E0C94260E65
:10221000FA01DC01AA0FBB1F9B01AC01BF5728F4D8
:10222000222733274427507820C0B75190F4AB2F92
:102230000024469537952795011CA395D2F30020DD
:1022400071F0220F331F441FB395DAF30ED00C94B4
:10225000AD0E61307105A0E88A07B94630F49B01E4
:10226000AC016627772788279078309621F0208365
:1022700031834283538308959F3F31F0915020F47E
:10228000879577956795B795880F911D9695879552
:1022900097F90895A1E21A2EAA1BBB1BFD010DC0E0
:1022A000AA1FBB1FEE1FFF1FA217B307E407F50706
:1022B00020F0A21BB30BE40BF50B661F771F881FE2
:1022C000991F1A9469F760957095809590959B0178
:1022D000AC01BD01CF010895EE0FFF1F0590F491F1
:1022E000E02D0994CF93DF938230910510F482E0C2
:1022F00090E0E091AF02F091B00220E030E0C0E069
:10230000D0E0309711F14081518148175907C0F052
:102310004817590761F482819381209719F09B83B4
:102320008A832BC09093B0028093AF0226C0211500
:10233000310519F04217530718F49A01BE01DF0165
:10234000EF010280F381E02DDCCF2115310509F189
:10235000281B390B2430310590F412968D919C91F5
:1023600013976115710521F0FB019383828304C0EB
:102370009093B0028093AF02FD01329644C0FD01FC
:10238000E20FF31F81939193225031092D933C93D7
:102390003AC02091AD023091AE02232B41F420913E
:1023A0000301309104013093AE022093AD022091DD
:1023B0000101309102012115310541F42DB73EB7DD
:1023C0004091050150910601241B350BE091AD02AF
:1023D000F091AE02E217F307A0F42E1B3F0B281773
:1023E000390778F0AC014E5F5F4F2417350748F08E
:1023F0004E0F5F1F5093AE024093AD0281939193B5
:1024000002C0E0E0F0E0CF01DF91CF9108950F939B
:102410001F93CF93DF93009709F48CC0FC01329790
:10242000138212820091AF021091B00201151105C2
:1024300081F420813181820F931F2091AD02309170
:10244000AE022817390779F5F093AE02E093AD029A
:1024500071C0D80140E050E0AE17BF0750F41296AB
:102460002D913C911397AD012115310509F1D90149
:10247000F3CF9D01DA013383228360817181860F5E
:10248000971F8217930769F4EC0128813981260F81
:10249000371F2E5F3F4F318320838A819B81938337
:1024A0008283452B29F4F093B002E093AF0242C03F
:1024B0001396FC93EE931297ED01499159919E0169
:1024C000240F351FE217F30771F480819181840F87
:1024D000951F029611969C938E93828193811396F9
:1024E0009C938E931297E0E0F0E0D80112968D91C4
:1024F0009C911397009719F0F8018C01F6CF8D91FC
:102500009C9198012E5F3F4F820F931F2091AD0247
:102510003091AE022817390769F4309729F41092E8
:10252000B0021092AF0202C0138212821093AE0268
:102530000093AD02DF91CF911F910F910895A0E01C
:10254000B0E0E5EAF2E10C947A0EEC01009721F498
:10255000CB010E947211B8C0FC01E60FF71F9C016D
:1025600022503109E217F30708F4ACC0D9010D91EC
:102570001C91119706171707B0F00530110508F4E4
:102580009FC0C80104978617970708F499C00250A6
:102590001109061B170B019311936D937C93CF01C7
:1025A0000E9407128DC05B01A01AB10A4C01800E77
:1025B000911EA091AF02B091B00240E050E0E12C3A
:1025C000F12C109709F44AC0A815B905D1F56D9002
:1025D0007C901197630182E0C80ED11CCA14DB0401
:1025E00080F1A3014A195B096A0182E0C80ED11C7F
:1025F0001296BC9012971396AC91B5E0CB16D1040D
:1026000040F0B282A38351834083D9016D937C93C0
:102610000AC00E5F1F4FC301800F911FF901918304
:102620008083EB2DFA2FE114F10431F0D7011396DA
:10263000FC93EE93129744C0F093B002E093AF0284
:102640003FC08D919C9111974817590708F4AC0130
:102650007D0112960D90BC91A02DB3CF8091AD025B
:102660009091AE0288159905E1F446175707C8F412
:102670008091010190910201009741F48DB79EB7BE
:102680004091050150910601841B950BE817F9074D
:10269000C8F4F093AE02E093AD02F9017183608358
:1026A0000FC0CB010E9472117C01009759F0A80164
:1026B000BE010E947113CE010E940712C70104C01F
:1026C000CE0102C080E090E0CDB7DEB7EEE00C9422
:1026D000960E9111089581568A5108F480528558BA
:1026E0000895FB01DC0102C001900D924150504061
:1026F000D8F70895FB01DC018D910190801901103C
:10270000D9F3990B0895FB01DC0101900D92002093
:08271000E1F70895F894FFCFF2
:10271800010000B1028000000000008D01FA0025D0
:1027280001D40156013401480100000000A2028EC4
:1027380002B4028002870284028102564552004197
:10274800412D3330205A45524F20313530004F4605
:1027580046004F4B004F4E0043414C000D0A0046C7
:102768005100535700465258002C006E616E0069A4
:0A2778006E66006F7666002C3000DC
:00000001FF
