:100000000C9462000C948A000C948A000C948A0070
:100010000C948A000C948A000C948A000C948A0038
:100020000C948A000C948A000C948A000C948A0028
:100030000C948A000C948A000C948A000C948A0018
:100040000C9489030C948A000C9457030C9431038C
:100050000C948A000C948A000C948A000C948A00F8
:100060000C94D3030C948A000000000025002800A3
:100070002B000000000023002600290000000008DB
:10008000000201000003040700000000000000005F
:1000900000000000240027002A00010204081020AC
:1000A000408001020408102001020408102004040A
:1000B0000404040404040202020202020303030310
:1000C0000303010511241FBECFEFD8E0DEBFCDBF73
:1000D00011E0A0E0B1E0E6E4F1E102C005900D928C
:1000E000A832B107D9F722E0A8E2B1E001C01D9221
:1000F000AE35B207E1F710E0C2E6D0E004C02197C8
:10010000FE010E949608C136D107C9F70E943A0540
:100110000C94A1080C940000CF92DF92EF92FF9212
:100120000F931F93CF93DF936C017A018B01C0E093
:10013000D0E0CE15DF0589F0D8016D918D01D60193
:10014000ED91FC910190F081E02DC6010995892B7C
:1001500011F47E0102C02196ECCFC701DF91CF914F
:100160001F910F91FF90EF90DF90CF900895FC01C9
:10017000538D448D252F30E0842F90E0821B930B0C
:10018000541710F0CF96089501970895FC01918DB2
:10019000828D981761F0828DDF01A80FB11D5D96E9
:1001A0008C91928D9F5F9F73928F90E008958FEF57
:1001B0009FEF0895FC01918D828D981731F0828D0B
:1001C000E80FF11D858D90E008958FEF9FEF089562
:1001D000FC01918D228D892F90E0805C9F4F821BC6
:1001E00091098F739927089585EB91E00E94E800AB
:1001F00021E0892B09F420E0822F0895FC01848DF1
:10020000DF01A80FB11DA35ABF4F2C91848D90E040
:1002100001968F739927848FA689B7892C93A0891B
:10022000B1898C9180648C93938D848D981306C0D2
:100230000288F389E02D80818F7D80830895EF927D
:10024000FF920F931F93CF93DF93EC0181E0888F90
:100250009B8D8C8D981305C0E889F989808185FD77
:1002600024C0F62E0B8D10E00F5F1F4F0F73112768
:10027000E02E8C8DE8120CC00FB607FCFACFE8898F
:10028000F989808185FFF5CFCE010E94FE00F1CF74
:100290008B8DFE01E80FF11DE35AFF4FF0820B8FAB
:1002A000EA89FB898081806207C0EE89FF896083CB
:1002B000E889F98980818064808381E090E0DF9122
:1002C000CF911F910F91FF90EF900895CF93DF93FF
:1002D000EC01888D8823C9F0EA89FB89808185FD3E
:1002E00005C0A889B9898C9186FD0FC00FB607FC9F
:1002F000F5CF808185FFF2CFA889B9898C9185FFE0
:10030000EDCFCE010E94FE00E7CFDF91CF9108959F
:1003100080E090E0892B29F00E94F40081110C9478
:1003200000000895833081F028F4813099F0823004
:10033000A1F008958730A9F08830B9F08430D1F465
:10034000809180008F7D03C0809180008F778093A3
:100350008000089584B58F7702C084B58F7D84BDF9
:1003600008958091B0008F7703C08091B0008F7D99
:100370008093B00008951F93CF93DF93282F30E030
:10038000F901E458FF4F8491F901E656FF4FD491EB
:10039000F901E255FF4FC491CC23C9F0162F81110A
:1003A0000E949201EC2FF0E0EE0FFF1FE859FF4F83
:1003B000A591B4918FB7F894111105C09C91ED2FC0
:1003C000E095E92302C0EC91ED2BEC938FBFDF9118
:1003D000CF911F910895CF93DF9390E0FC01E656F3
:1003E000FF4F2491FC01E255FF4F8491882361F176
:1003F00090E0880F991FFC01E057FF4FC591D49101
:10040000FC01E859FF4FA591B491611109C09FB754
:10041000F8948881209582238883EC912E230BC049
:10042000623061F49FB7F8943881822F80958323DE
:100430008883EC912E2B2C939FBF06C08FB7F89426
:10044000E8812E2B28838FBFDF91CF9108953FB78E
:10045000F89480919D0190919E01A0919F01B0918F
:10046000A00126B5A89B05C02F3F19F00196A11D3C
:10047000B11D3FBFBA2FA92F982F8827820F911D3A
:10048000A11DB11DBC01CD0142E0660F771F881F81
:10049000991F4A95D1F7089585ED8093BC0080910E
:1004A000BC0084FDFCCF10927201089540914C0174
:1004B000262F30E0240F311D21323105DCF420914C
:1004C00072012430C9F4FC0180E090E0861758F4F2
:1004D00030914C012191DC01A65DBE4FA30FB11DEF
:1004E0002C930196F3CF80914C01680F60934C01DF
:1004F00080E0089581E0089582E0089508958FEFE7
:100500009FEF08958FEF9FEF08958091290190E06C
:100510009195819591090895CF93DF9300D0CDB740
:10052000DEB7CB01642F49835A830E94560249816A
:10053000842F5A81952F0F900F90DF91CF910895BE
:10054000CF93DF931F92CDB7DEB7698361E0CE0111
:1005500001960E94560281E090E00F90DF91CF91CA
:100560000895089580E090E00895CF93C82F61E04A
:100570000E94BB0160E08C2FCF910C94BB01CF9304
:10058000DF93C0E0D1E085EB91E00E94E800892B89
:1005900049F185EB91E00E94C600C82F80912801A7
:1005A00081111EC0CD30E1F4C0E0CD30B9F085EB53
:1005B00091E00E94E800892BC1F385EB91E00E9455
:1005C000C600C82FF2CF85EB91E00E94E800892B8E
:1005D00029F085EB91E00E94C600C82FC03399F73F
:1005E000D0932801CD3039F08C2F0C2E000C990BB4
:1005F000C0970A9740F68C2FDF91CF9108958EBD5A
:1006000000000DB407FEFDCF8EB50895CF92DF92A6
:10061000EF92FF920F931F93CF93DF936B017C01B7
:100620008A01C4E0D0E08C2D0E94FF02CD2CDE2C8C
:10063000EF2CFF242197B9F7012B11F480E001C0C2
:1006400081E00E94FF0288E090E0DF91CF911F914E
:100650000F91FF90EF90DF90CF900C94B5020E9425
:100660009C081F920F920FB60F9211242F933F9365
:100670004F935F936F937F938F939F93AF93BF93AA
:10068000EF93FF9385EB91E00E94FE00FF91EF91C5
:10069000BF91AF919F918F917F916F915F914F919A
:1006A0003F912F910F900FBE0F901F9018951F92A2
:1006B0000F920FB60F9211242F938F939F93EF9366
:1006C000FF93E091C501F091C6018081E091CB01DB
:1006D000F091CC0182FD12C090818091CE018F5F9C
:1006E0008F732091CF01821751F0E091CE01F0E09D
:1006F000EB54FE4F958F8093CE0101C08081FF9116
:10070000EF919F918F912F910F900FBE0F901F909F
:1007100018951F920F920FB60F9211242F933F93AB
:100720008F939F93AF93BF938091990190919A017A
:10073000A0919B01B0919C013091980123E0230F7F
:100740002D3720F40196A11DB11D05C026E8230F09
:100750000296A11DB11D2093980180939901909359
:100760009A01A0939B01B0939C0180919D0190916F
:100770009E01A0919F01B091A0010196A11DB11D04
:1007800080939D0190939E01A0939F01B093A0013F
:10079000BF91AF919F918F913F912F910F900FBE7D
:1007A0000F901F9018951F920F920FB60F92112461
:1007B0002F933F934F935F936F937F938F939F9369
:1007C000AF93BF93EF93FF938091B900887F8036FA
:1007D00009F49CC068F5883209F45BC090F480315C
:1007E00009F454C038F4882309F4F6C0883009F4B9
:1007F0004DC0F6C0883109F44CC0803209F45DC0A8
:10080000EFC0803409F468C048F4803309F455C05F
:10081000883309F0E5C080937101D8C0803509F4B0
:100820004FC0883509F45DC0883409F0D9C0D6C0FE
:10083000883909F4C7C0A8F4883709F467C038F4C8
:10084000883609F463C0803709F460C0C9C08838AD
:1008500009F4B8C0803909F45FC0803809F0C0C01D
:100860005BC0803B09F486C038F4803A09F466C066
:10087000883A09F47FC0B4C0803C09F4A7C0883C22
:1008800009F4A4C0883B09F48AC0AAC080919701EA
:1008900010C09091960180919501981770F5E091A4
:1008A000960181E08E0F80939601F0E0EB58FE4FA9
:1008B00080818093BB0085EC86C0809371018EC0DF
:1008C000E091960181E08E0F809396018091BB00AC
:1008D000F0E0EB58FE4F8083909196018091950156
:1008E0006EC0E091960181E08E0F80939601809119
:1008F000BB00F0E0EB58FE4F8083809174018111C2
:100900006DC081E08093730184EA61C083E08093CD
:10091000720110927001CFCF80917001803208F087
:1009200051C0E091700181E08E0F80937001809141
:10093000BB00F0E0E05BFE4F8083BDCF85EC809391
:10094000BC001092720180917001803230F4E0910D
:100950007001F0E0E05BFE4F10826091700170E08A
:10096000E0914E01F0914F0180E591E009951092E0
:10097000700136C084E08093720110924D01109294
:100980004C01E0914A01F0914B01099580914C0195
:10099000811105C081E080934C0110922A01E09101
:1009A0004D0181E08E0F80934D01F0E0E65DFE4F3A
:1009B00080818093BB0090914D0180914C019817EC
:1009C00008F479CF85E88093BC000AC085EC809359
:1009D000BC001092720104C0109271010E944C027E
:1009E000FF91EF91BF91AF919F918F917F916F9107
:1009F0005F914F913F912F910F900FBE0F901F90DD
:100A00001895E5EBF1E01382128288EE93E0A0E006
:100A1000B0E084839583A683B78325E031E03183FA
:100A2000208325EC30E03587248724EC30E03787BD
:100A3000268720EC30E0318B208B21EC30E0338BAB
:100A4000228B22EC30E0358B248B26EC30E0378B88
:100A5000268B118E128E138E148EE2E5F2E0138235
:100A6000128284839583A683B78387E191E0918383
:100A700080830895CF93DF93CDB7DEB72B970FB662
:100A8000F894DEBF0FBECDBF789484B5826084BD7C
:100A900084B5816084BD85B5826085BD85B5816082
:100AA00085BD80916E00816080936E001092810000
:100AB00080918100826080938100809181008160BB
:100AC000809381008091800081608093800080917C
:100AD000B10084608093B1008091B0008160809308
:100AE000B00080917A00846080937A0080917A00CF
:100AF000826080937A0080917A00816080937A008E
:100B000080917A00806880937A001092C100E09111
:100B1000C501F091C60182E08083E091C101F091AE
:100B2000C2011082E091C301F091C40180E1808391
:100B30001092CD01E091C901F091CA0186E0808355
:100B4000E091C701F091C801808180618083E091CC
:100B5000C701F091C801808188608083E091C7015E
:100B6000F091C801808180688083E091C701F09195
:100B7000C80180818F7D808340E050E067E271E0B2
:100B800085EB91E00E948C0042E050E065E271E06C
:100B900085EB91E00E948C0061E084E00E94EB0113
:100BA00062E087E00E94EB0160E084E00E94BB010C
:100BB00010920001E3E8F0E08491E1EAF0E00491B2
:100BC000E5EBF0E014911123A1F081110E94920154
:100BD000E12FF0E0EE0FFF1FEE58FF4FA591B4910B
:100BE000EC91E02331E020E009F430E0832F922FF4
:100BF00002C080E090E021E082279093B0018093D2
:100C0000AF011FB7F8948091A101811127C0E8EBD3
:100C1000F0E08491E4EAF0E09491E82FF0E0EE0F48
:100C2000FF1FE057FF4FA591B491EC91E92321F408
:100C300061E08AE00E94BB0161E08AE00E94EB0172
:100C40008CB580618CBD8CB580648CBD61E08DE01D
:100C50000E94EB0161E08BE00E94EB018091A10119
:100C60008F5F8093A1011FBF61E08DE00E94EB01C7
:100C700061E088E00E94EB0161E089E00E94EB0105
:100C80008CB580628CBD8CB5837F8CBD89E090E093
:100C90000E94B5028DE090E00E94B50288E090E0ED
:100CA0000E94B5020E9427024B015C013AE0C32E6C
:100CB000D12CE12CF12C0E942702DC01CB018819F8
:100CC0009909AA09BB09883E9340A105B10558F0CE
:100CD00041E0C41AD108E108F10888EE880E83E0EB
:100CE000981EA11CB11CC114D104E104F10419F730
:100CF0000091AF011091B001A80160E070E0CB015C
:100D00000E940603A80160E070E0CB010E94060388
:100D100082E090E00E9466088093A70183E090E063
:100D20000E9466088093A8019924939484E1E82E98
:100D3000F12C9AE0892E26E0C22ED12C85EB91E091
:100D40000E9466010E94BF02803329F0813339F48A
:100D50009092A20102C01092A20110E001C011E025
:100D60000E94BF028D3009F0A0C011119EC0CE01BB
:100D700001965C013C0100E00E94BF028D3091F0C1
:100D8000282F082E000C330B205331092A3031054F
:100D900008F42DC111E00F5FFFEF6F1A7F0A0B30CF
:100DA00059F704C00B3014F4011101C011E0E1E067
:100DB000F0E0EC0FFD1FE00FF11D07FDFA9510822A
:100DC000111173C0CE0101960E9422086093AB01FD
:100DD0007093AC018093AD019093AE01CE0101966A
:100DE0003C0100E00E94BF028D3091F0282F082EB8
:100DF000000C330B205331092A30310508F4FAC0B6
:100E000011E00F5F9FEF691A790A063059F704C0A5
:100E1000063014F4011101C011E0E1E0F0E0EC0F44
:100E2000FD1FE00FF11D07FDFA95108211113DC065
:100E3000CE0101960E9404089093B4018093B301FF
:100E400000E00E94BF028D3009F4DAC0282F082E7E
:100E5000000C330B205331092A30310508F4CDC082
:100E600011E00F5FEFEFAE1ABE0A0B3051F711E041
:100E7000E1E0F0E0EC0FFD1FE00FF11D07FDFA953A
:100E80001082111112C0CE0101960E9422086093B7
:100E9000A3017093A4018093A5019093A601809172
:100EA000B3019091B401892B39F460E084E00E9491
:100EB000BB010E94880142CF61E084E00E94BB0137
:100EC0001092B2011092B1012091B1013091B201A2
:100ED0008091B3019091B4012817390730F7409100
:100EE000AF015091B0016091AB017091AC01809164
:100EF000AD019091AE010E94060384E190E000E014
:100F000010E020910001F0E42F9F90011124209324
:100F10007C0020917A00206420937A0020917A004E
:100F200026FDFCCF209178004091790030E0342BF1
:100F3000020F131F019729F760E085EB91E00E94F3
:100F40001F0160E085EB91E00E941F01C801B7011D
:100F50000E946E088091A7019091A801680F791FE7
:100F6000869EC001879E900D1124B6010E948208C2
:100F7000745077FD05C07093AA016093A90104C065
:100F80001092AA011092A9016091A9011091AA01E1
:100F900085EB91E00E941F01612F85EB91E00E949B
:100FA0001F014091AB015091AC016091AD01709176
:100FB000AE018091A3019091A401A091A501B091EF
:100FC000A601840F951FA61FB71F8093AB019093B6
:100FD000AC01A093AD01B093AE018091B1019091AD
:100FE000B20101969093B2018093B1016DCFF301EC
:100FF0008083D1CEF301808304CFF501808331CF8C
:10100000002309F434CF34CFFC0188279927E894D2
:1010100021912032E9F3293010F02E30C8F32B3221
:1010200041F02D3239F4689404C00E945E08820FAA
:10103000911D219120532A30C0F31EF49095819583
:101040009F4F08951F93FC0199278827BC01E894BE
:1010500011911032E9F3193010F01E30C8F31B3231
:1010600051F01D3249F4689406C00E944908610F8E
:10107000711D811D911D119110531A30B0F33EF472
:1010800090958095709561957F4F8F4F9F4F1F91E1
:101090000895592F482F372F262F660F771F881F47
:1010A000991F660F771F881F991F620F731F841F78
:1010B000951F660F771F881F991F08957AE0979FE5
:1010C000902D879F802D910D11240895F999FECFC1
:1010D00092BD81BDF89A992780B50895AA1BBB1BC4
:1010E00051E107C0AA1FBB1FA617B70710F0A61B28
:1010F000B70B881F991F5A95A9F780959095BC0149
:10110000CD01089597FB072E16F4009407D077FDC4
:1011100009D00E946E0807FC05D03EF49095819599
:101120009F4F0895709561957F4F0895EE0FFF1FB3
:101130000590F491E02D099481E090E0F8940C94EE
:06114000A108F894FFCFA6
:1011460001000000001F018C00B7006601E800C620
:1011560000DA0000000000A0028C02B2027E0285C6
:081166000282027F020D0A0063
:00000001FF
